:100000000C9458010C946A0E0C94430E0C941C0E24
:100010000C94F50D0C9480010C9480010C94CE0D81
:100020000C9480010C9480010C948B0A0C94FA0AB5
:100030000C9480010C9480010C9480010C9480013C
:100040000C9480010C9480010C9480010C9480012C
:100050000C9480010C9480010C9480010C94840D0C
:100060000C9480010C94520D0C942C0D0C94800176
:100070000C9480010C9480010C9480010C948001FC
:100080000C9480010C9480010C9480010C948001EC
:100090000C94910E0C9480010C9480010C948001BE
:1000A0000C9480010C9480010C94800100407A1023
:1000B000F35A00A0724E18090010A5D4E80000E819
:1000C0007648170000E40B54020000CA9A3B000077
:1000D00000E1F505000080969800000040420F0006
:1000E0000000A08601000000102700000000E803C7
:1000F000000000006400000000000A000000000092
:100100000100000000002C76D888DC674F0823DF50
:10011000C1DFAE59E1B1B796E5E3E453C63AE65123
:10012000997696E8E6C28426EB898C9B62ED407C4A
:100130006FFCEFBC9C9F40F2BAA56FA5F490055AE6
:100140002AF75C936B6CF9676DC11BFCE0E40D470B
:10015000FEF520E6B500D0ED902E0300943577052E
:100160000080841E080000204E0A000000C80C33E6
:100170003333330F986E12831141EF8D2114893B75
:10018000E65516CFFEE6DB18D1844B381BF77C1DF5
:10019000901DA4BBE424203284725E228100C9F148
:1001A00024ECA1E53D27070605040100080A0B0C15
:1001B0000D0900000000240027002A002D00300057
:1001C00000000000250028002B002E003100000058
:1001D000000200090F0000030401000C00000000F1
:1001E00000000000000000000000000000080B00FC
:1001F00002020200000904000001020200000524BE
:100200000010010524010101042402060524060052
:10021000010705810310004009040100020A0000E3
:1002200000070502024000000705830240000004A9
:1002300003090412010002EF02014041233780004C
:10024000010102030141726475696E6F204C4C43D9
:100250000041726475696E6F204D6963726F0004AE
:1002600008020110408040102040804080080204B5
:10027000018040201002011080102040402000002A
:1002800000002300260029002C002F000404040491
:10029000040304050202020204030202020206062B
:1002A000060606060404020202040400E30F6E16AA
:1002B00011241FBECFEFDAE0DEBFCDBF12E0A0E019
:1002C000B1E0E2E3F8E302C005900D92A834B10773
:1002D000D9F724E0A8E4B2E001C01D92AD36B20720
:1002E000E1F711E0C7E5D1E004C02197FE010E94CB
:1002F000081AC635D107C9F70E94CF100C940C1C00
:100300000C940000FC0180913503882311F13FB764
:10031000F89482E08093E9002091F200822F90E02F
:100320001816190614F481E090E0882339F0289A11
:1003300044E6409334034091F1004083222339F096
:100340002091F200211103C02BE62093E8003FBF6B
:1003500008958FEF9FEF08952FB7F89483E080936F
:10036000E9009091E800892F807295FF04C0909178
:10037000F20080E4891B2FBF089580912C03811126
:100380000DC082E08093280384E0809329031092BB
:100390002B0310922A0381E080932C0388E293E0E0
:1003A0000895CF93DF931F92CDB7DEB76983DC0149
:1003B000ED91FC910280F381E02D41E050E0BE011F
:1003C0006F5F7F4F09950F90DF91CF91089583E084
:1003D0008093E9008091F200882319F08AE38093EA
:1003E000E80008950E94AC0190E00895CF93DF9358
:1003F0001F92CDB7DEB7FC018485958597FD08C0B7
:100400002FEF3FEF358724870F90DF91CF9108952D
:10041000CE0101960E948201019719F4898190E032
:10042000F3CF8FEF9FEFF0CF0F931F93CF93DF9317
:100430001F92CDB7DEB78C01FC018485958597FFAF
:100440000BC0CE0101960E948201019771F489814F
:1004500090E0F80195878487F801848595850F9051
:10046000DF91CF911F910F9108958FEF9FEFF1CF03
:10047000FC018485958597FD0BC09FB7F89482E0B9
:100480008093E9008091F2009FBF90E0019608956B
:100490009FB7F89482E08093E9008091F2009FBFBB
:1004A00090E008954091220350912303209120036E
:1004B0003091210342175307B4F49091E8009570EE
:1004C000E1F39091E80092FD19C08093F1008091D2
:1004D00022039091230301968F739927892B19F496
:1004E0008EEF8093E8008091220390912303019680
:1004F000909323038093220381E0089580E0089580
:10050000DF92EF92FF920F931F93CF93DF93D82E3A
:100510008A01EB017B01E40EF51ECE15DF0559F0D3
:10052000D7FE12C0FE0184910E94520221968111D1
:10053000F4CF0FEF1FEFC801DF91CF911F910F9103
:10054000FF90EF90DF9008958881EECF0F931F9377
:10055000CF93DF931F92CDB7DEB782E0898342E469
:1005600050E06DEE71E080E80E9480020E94BD01C3
:10057000DC0112960D911C910115110589F0D8012D
:10058000ED91FC910280F381E02DBE016F5F7F4F02
:10059000C801099597FD04C0F80100851185ECCFCD
:1005A00089810F90DF91CF911F910F910895615034
:1005B00030F02091F100FC0120830196F8CF289AB9
:1005C00084E680933403089508950895DB0114961A
:1005D0004D915C9115976D917C91DC01ED91FC91B1
:1005E0000280F381E02D0994AF92BF92CF92DF9207
:1005F000EF92FF920F931F93CF93DF936C017B01D8
:100600008B01040F151FEB015E01AE18BF08C01768
:10061000D10759F06991D601ED91FC910190F081DB
:10062000E02DC6010995892B79F7C501DF91CF919E
:100630001F910F91FF90EF90DF90CF90BF90AF9000
:100640000895FC01538D448D252F30E0842F90E0D8
:10065000821B930B541710F0CF96089501970895BD
:10066000FC01918D828D981761F0A28DAE0FBF2F86
:10067000B11D5D968C91928D9F5F9F73928F90E0DC
:1006800008958FEF9FEF0895FC01918D828D98174B
:1006900031F0828DE80FF11D858D90E008958FEF88
:1006A0009FEF0895FC01918D228D892F90E0805C51
:1006B0009F4F821B91098F739927089586E893E0D5
:1006C0000E94520321E0892B09F420E0822F089533
:1006D00080E090E0892B29F00E945E0381110C9448
:1006E00000000895FC01A48DA80FB92FB11DA35AD5
:1006F000BF4F2C91848D90E001968F739927848F42
:10070000A689B7892C93A089B1898C9182748C9326
:10071000938D848D981306C00288F389E02D808123
:100720008F7D80830895EF92FF920F931F93CF9355
:10073000DF93EC0181E0888F9B8D8C8D981319C01D
:10074000E889F989808185FF14C09FB7F894EE8904
:10075000FF896083E889F9898081827480839FBFE3
:1007600081E090E0DF91CF911F910F91FF90EF908A
:100770000895F62E0B8D10E00F5F1F4F0F7311279A
:10078000E02E8C8D8E110CC00FB607FCFACFE889D5
:10079000F989808185FFF5CFCE010E947203F1CFE8
:1007A000EB8DEC0FFD2FF11DE35AFF4FF0829FB749
:1007B000F8940B8FEA89FB8980818062CFCFCF9339
:1007C000DF93EC01888D8823B9F0AA89BB89E88979
:1007D000F9898C9185FD03C0808186FD0DC00FB61F
:1007E00007FCF7CF8C9185FFF2CF808185FFEDCF9D
:1007F000CE010E947203E9CFDF91CF91089581501D
:100800008F3008F047C0E82FF0E0E75FFB4F0C9413
:10081000081A26042A0418041E0422044A044A045E
:100820004A042D04330437043B0441044A044504BC
:10083000809180008F778093800008958091800060
:100840008F7DF9CF80918000877FF5CF84B58F773A
:1008500084BD089584B58F7DFBCF809190008F7704
:10086000809390000895809190008F7DF9CF8091C2
:100870009000877FF5CF8091C0008F778093C00074
:1008800008958091C0008F7DF9CF8091C200877F4D
:100890008093C20008951F93CF93DF93282F30E0F9
:1008A000F901E253FE4F8491F901E15AFD4FD491D1
:1008B000F901E457FD4FC491CC23A9F0162F811103
:1008C0000E94FF03EC2FF0E0EE0FFF1FE054FE4FFD
:1008D000A591B4918FB7F894EC91111108C0D095FF
:1008E000DE23DC938FBFDF91CF911F910895DE2B24
:1008F000F8CFCF93DF9390E0FC01E15AFD4F2491B4
:1009000084579D4FFC0184918823C9F090E0880FA3
:10091000991FFC01EE54FE4FA591B491FC01E054E7
:10092000FE4FC591D49161110DC09FB7F8948C9181
:10093000209582238C938881282328839FBFDF9171
:10094000CF910895623051F49FB7F8943C91822F73
:10095000809583238C93E8812E2BEFCF8FB7F8946B
:10096000EC912E2B2C938FBFEACF8251E82FF0E031
:10097000EA55FE4FE49190917B008E2F880F880FEF
:1009800080729F7D892B80937B00E770E064E09309
:100990007C0080917A00806480937A0080917A0054
:1009A00086FDFCCF809178009091790008953FB743
:1009B000F8948091F6029091F702A091F802B0911C
:1009C000F90226B5A89B05C02F3F19F00196A11D7D
:1009D000B11D3FBFBA2FA92F982F8827BC01CD0189
:1009E000620F711D811D911D42E0660F771F881FE8
:1009F000991F4A95D1F708958F929F92AF92BF9217
:100A0000CF92DF92EF92FF924B015C010E94D704DC
:100A10006B017C010E94D7046C197D098E099F0926
:100A2000683E734081059105A8F321E0821A910880
:100A3000A108B10888EEC80E83E0D81EE11CF11CA5
:100A400081149104A104B10429F7FF90EF90DF9085
:100A5000CF90BF90AF909F908F9008958F929F926C
:100A6000AF92BF92CF92DF92EF92FF920F931F93BC
:100A7000CF93DF936C017B018A018091420188232F
:100A800009F45CC080913503882309F457C0809134
:100A9000270380FF05C08091E00082608093E00022
:100AA000E801B12C8AEFA82E93E0892E2AE3922E3A
:100AB000209711F4BB20D9F10E94AC0181110AC02A
:100AC000AA94AA20D9F161E070E080E090E00E9451
:100AD000FC04EECF8C171D0611F00CF08C2F9FB785
:100AE000F8948092E9002091E80025FD02C09FBFA4
:100AF000DFCF282F30E0C21BD30BF701815020F04D
:100B000041914093F100FACFE20EF31EBB2021F099
:100B10009092E800B12CEBCF8091E80085FDE7CF03
:100B20009092E800BB24B394209709F3F3CF5D9A29
:100B300084E680932603101611063CF081E090E0D5
:100B4000F6019383828310E000E0C801DF91CF912A
:100B50001F910F91FF90EF90DF90CF90BF90AF90DB
:100B60009F908F9008952FB7F8946091F202709142
:100B7000F3028091F4029091F5022FBF0895089539
:100B8000862F642F0C947904CF93DF93FC01218985
:100B900030E0F901E253FE4F8491F901E15AFD4F33
:100BA000D491F901E457FD4FC491CC2379F0811120
:100BB0000E94FF03EC2FF0E0EE0FFF1FE258FD4F05
:100BC000A591B491EC91ED2381E009F480E081706E
:100BD000DF91CF910895089585ED8093BC008091B9
:100BE000BC0084FDFCCF1092000308952091880280
:100BF000260F3327331F21323105ECF420910003F7
:100C0000FC0190E080E0243069F082E00895A0913A
:100C100088022191AC0148595D4FA40FB52FB11D39
:100C20002C930196861798F380918802680F609341
:100C3000880280E0089581E008950895E09104031A
:100C400080910303E81730F4F0E0E85BFD4F80810A
:100C500090E008958FEF9FEF0895909104038091A5
:100C600003032FEF3FEF981748F4E92FF0E0E85B1C
:100C7000FD4F208130E09F5F90930403C9010895E8
:100C80008091030390910403891B990B0895CF92DF
:100C9000DF92EF92FF920F931F93CF93DF937C012C
:100CA000CB018A012091CF02222389F0EB016B0155
:100CB000C40ED51ECC15DD0569F06991D701ED9103
:100CC000FC910190F081E02DC7010995F3CF642FCD
:100CD0000E94F605C801DF91CF911F910F91FF90FF
:100CE000EF90DF90CF900895CF93DF931F92CDB711
:100CF000DEB769832091CF022223F9F0209101030E
:100D0000203258F021E030E0FC013383228390E070
:100D100080E00F90DF91CF91089580910203E82F3A
:100D2000F0E0E053FD4F998190838F5F8093020341
:100D30008093010381E090E0ECCF61E0CE01019669
:100D40000E94F605F7CFCF93FC01C48121E02093E8
:100D5000CF02C093F0021092020310920103838528
:100D6000682B83E294E00E94740690910103913213
:100D700008F03FC0809100038111FCCF82E0809396
:100D8000000381E08093FF028FEF8093CE021092E8
:100D9000CD029093CC02A0EDB2E0ECEAF2E080E06C
:100DA00098132FC01092AB028091AB02CC0FC82BCE
:100DB000C093AB028091FE02813039F51092FE02A1
:100DC0008091AB028093BB008091BC0083FDF8CF83
:100DD00085EC8093BC00809100038230E1F3809128
:100DE000CE028F3F31F08091CE02803211F080919F
:100DF000CE0210920203109201031092CF02CF9103
:100E000008952D9121938F5FCBCF85EEE2CF90E0B7
:100E100080E00895DC01ED91FD918081ED91FD91DF
:100E20009081ED91FD916C9163708E2309F0646067
:100E30009F2309F06860E7E2F7E0E60FF11D659592
:100E400065956D936D917D918D919D91099423C0D0
:100E50001AC012C016C010C01EC009C014C013C0F2
:100E600006C019C009C00DC007C00DC014C0625033
:100E70007040804090400BC0615070408040904076
:100E800006C06E5F01C06F5F7F4F8F4F9F4F9E9375
:100E90008E937E936E93089580912F0490913004E9
:100EA0000C940A0780913104909132040C940A0743
:100EB00080913304909134040C940A078091350496
:100EC000909136040C940A0780913704909138046D
:100ED0000C940A070F931F93CF938C01C62F0E9487
:100EE000A3066C2F6460C8010E94A3066C2F6B7F61
:100EF000C8010E94A30683EC90E00197F1F7CF911F
:100F00001F910F9108950F931F93CF93DF938C013F
:100F1000D62FC42F607F642B0E946A0780E1D89F80
:100F2000B00111246C2BC801DF91CF911F910F915B
:100F30000C946A07CF93DF93CDB7DEB728970FB62F
:100F4000F894DEBF0FBECDBF98E0E9E4F1E0DE012A
:100F5000119601900D929A95E1F79091650496177C
:100F600008F46FEF262F30E0220F331F41E050E0EE
:100F70004C0F5D1F240F351FF9016081680F6068F9
:100F800040E08DE594E028960FB6F894DEBF0FBEE2
:100F9000CDBFDF91CF910C94830740E061E08DE5F8
:100FA00094E00E9483078BE39FE10197F1F7089596
:100FB00041E00E94830781E090E008958F929F9224
:100FC000AF92BF920F931F93CF93DF93CDB7DEB74E
:100FD000A1970FB6F894DEBF0FBECDBF19A2423065
:100FE00008F44AE08E010F5D1F4F842E912CB12C26
:100FF000A12CA50194010E94D719E62FB901CA01BD
:10100000EA3044F5E05DD801EE938D01232B242BCB
:10101000252B79F790E080E0109769F0FD010190B1
:101020000020E9F73197AF014A1B5B0BBD018DE54D
:1010300094E00E94F402A1960FB6F894DEBF0FBEB2
:10104000CDBFDF91CF911F910F91BF90AF909F9037
:101050008F900895E95CD7CFFC0101900020E9F75B
:101060003197AF01481B590BBC018DE594E00C94FE
:10107000F402CF93DF93EC0188819981009711F0FE
:101080000E94B11A198218821D821C821B821A8248
:10109000DF91CF910895FC0180819181009711F03B
:1010A0000C94B11A08950E94F71B0F931F93CF93CE
:1010B000DF93EC0188819981009759F02A813B8167
:1010C0002617370730F081E0DF91CF911F910F9104
:1010D00008958B016F5F7F4F0E943A1B009759F074
:1010E000998388831B830A832C813D81232B59F7A5
:1010F000FC011082E8CF80E0E7CFEF92FF920F93E0
:101100001F93CF93DF936115710541F480E0DF9168
:10111000CF911F910F91FF90EF90089541155105C8
:10112000B1F07B01EC010C811D81040F151FB8018A
:101130000E945508882351F3288139818C819D8133
:10114000B701820F931F0E94051C1D830C8381E051
:10115000DECFCF93DF93EC01FB0101900020E9F794
:101160003197AF01461B570B0E947D08811103C0C8
:10117000CE010E943908CE01DF91CF910895CF931F
:10118000DF93EC01FB0144815581608171810E94F4
:101190007D08811103C0CE010E943908CE01DF9184
:1011A000CF910895FB0144815581608171810C9438
:1011B0007D08EF92FF920F931F93CF93DF93EC0183
:1011C0007B018A01BA010E94550881110BC0CE0132
:1011D0000E943908CE01DF91CF911F910F91FF90AE
:1011E000EF9008951D830C83B701888199810E9437
:1011F000051CF0CFFB0101900020E9F73197AF010A
:10120000461B570B0C94D908EF92FF920F931F9334
:10121000CF93DF93CDB7DEB7A1970FB6F894DEBFBB
:101220000FBECDBF7C01CB01BA01F7011182108244
:1012300013821282158214828E010F5F1F4F21E0EC
:1012400043E00E947216009789F0BC01C7010E941A
:10125000FA08A1960FB6F894DEBF0FBECDBFDF919E
:10126000CF911F910F91FF90EF900895C7010E94B9
:101270003908EFCF0F931F93CF93DF93CDB7DEB72E
:10128000A1970FB6F894DEBF0FBECDBF8C01CB0186
:10129000BA01F8011182108213821282158214821F
:1012A0002AE0AE014F5F5F4F0E94DB16BE016F5F09
:1012B0007F4FC8010E94FA08A1960FB6F894DEBFCE
:1012C0000FBECDBFDF91CF911F910F910895FC010B
:1012D000118210821382128215821482FB01019006
:1012E0000020E9F73197AF01461B570B0C94D90842
:1012F000CF92DF92EF92FF920F931F93CF93DF93E2
:10130000CDB7DEB762970FB6F894DEBF0FBECDBF84
:101310000E94B3056B017C0186E893E00E94DF0325
:1013200061E08DE00E944B0410E001E086E893E06C
:101330000E9430038A97A9F00E94B3056C197D09B9
:101340008E099F09653671058105910578F310278F
:101350000E94B3056B017C01612F84E00E944B0465
:10136000E5CF60E084E00E944B040E94B3056B016E
:101370007C0162EA71E0CE010D960E9467094091FE
:101380000F03509110036091110370911203CE016D
:1013900007960E943A0964EA71E0CE0101960E9424
:1013A0006709BE01695F7F4FCE0101960E94BF08A9
:1013B00066EA71E00E94A908BC01CE010D960E9468
:1013C000D208CE0101960E944B08CE0107960E94DA
:1013D0004B0840912601509127016091280170919E
:1013E0002901CE0107960E943A0968EA71E0CE0110
:1013F00001960E946709BE01695F7F4FCE01019689
:101400000E94BF086AEA71E00E94A908BC01CE01EF
:101410000D960E94D208CE0101960E944B08CE0183
:1014200007960E944B0840912A0150912B01609130
:101430002C0170912D01CE0107960E943A096CEAA9
:1014400071E0CE0101960E946709BE01695F7F4F7E
:10145000CE0101960E94BF086EEA71E00E94A908C1
:10146000BC01CE010D960E94D208CE0101960E94C9
:101470004B08CE0107960E944B0841E050E060EB1C
:1014800071E0CE010D960E947D080E94CD0786E88E
:1014900093E00E94DF0386E893E00E9430038534E6
:1014A000910511F10E94B3056C197D098E099F0900
:1014B0006B3F71058105910570F360E080E00E944B
:1014C0009A07BE01635F7F4F8DE594E00E94E602BC
:1014D000BE01635F7F4F86E893E00E94E6020E94B0
:1014E000B3056B017C01D7CF60E08DE00E944B0417
:1014F000CE010D960E944B0862960FB6F894DEBF9F
:101500000FBECDBFDF91CF911F910F91FF90EF9054
:10151000DF90CF9008951F920F920FB60F92112473
:101520008F939F938091E1009091E100937F90933E
:10153000E10083FF0FC01092E90091E09093EB006F
:101540001092EC0092E39093ED001092350398E036
:101550009093F00082FF22C093E09093E900909175
:10156000F200992319F09AE39093E80090912603F2
:10157000992341F090912603915090932603911165
:1015800001C05D9890913403992341F09091340308
:10159000915090933403911101C0289884FF18C092
:1015A0008091E2008E7E81608093E2008091E10074
:1015B0008F7E8093E100809127038E7E80618093EF
:1015C00027039F918F910F900FBE0F901F9018953A
:1015D00080FFF7CF8091E2008E7E80618093E200F1
:1015E0008091E1008E7E8093E100809127038E7EC2
:1015F0008160E5CF1F920F920FB60F921124CF9208
:10160000DF92EF92FF920F931F932F933F934F938D
:101610005F936F937F938F939F93AF93BF93EF935A
:10162000FF93CF93DF93CDB7DEB76C97DEBFCDBF0F
:101630001092E9008091E80083FF25C068E0CE01A8
:1016400045960E94D70282EF8093E8008D8987FF3C
:1016500039C09091E80090FFFCCF982F907609F068
:1016600034C19E894F89588D2F89F88C911131C0D2
:10167000803861F5809125038093F1001092F1008C
:101680008EEF8093E8006C960FB6F894DEBF0FBE25
:10169000CDBFDF91CF91FF91EF91BF91AF919F911E
:1016A0008F917F916F915F914F913F912F911F91FA
:1016B0000F91FF90EF90DF90CF900F900FBE0F90A3
:1016C0001F9018959EEF9093E800C7CF1092F100FD
:1016D000D5CF913059F48111D3CF4130510581F6E6
:1016E000809125038D7F80932503CACF933049F4E1
:1016F0008111C6CF4130510519F6809125038260D2
:10170000F2CF953041F48091E80080FFFCCF206853
:101710002093E300B5CF963009F0A9C00B8D1C8D46
:1017200022E01092E9001092230310922203F21299
:101730002EC010922103109220030E94A6021F8245
:1017400099E09983FA8291E09E8390EA98879AEFD4
:1017500099872091220330912303275F3F4F3C83D9
:101760002B838D831092E9001092230310922203A1
:10177000109321030093200349E050E0BE016F5F06
:101780007F4F80E00E9480020E94A60279CF1093D2
:101790002103009320030E94BD01DC0112960D91EC
:1017A0001C910115110509F451C1D801ED91FC916D
:1017B0000480F581E02DBE016B5E7F4FC801099565
:1017C000009709F03EC1F80100851185EACFF3E0EA
:1017D000FF120EC08F89882309F440C0823061F463
:1017E00040E86DE081E592E00E94B00F811148CFA2
:1017F00081E28093EB0047CF813029F440E86BE031
:1018000085E492E0F1CF833099F70E94BD01DC01BD
:101810001296ED90FC908E010F5F1F4F6801E1144E
:10182000F10479F0D701ED91FC910680F781E02D6C
:10183000B801C7010995080F111DF701E084F18473
:10184000EECFD8011C92F60101900020E9F7319704
:10185000BF016C197D0940E0C601C6CF6FE272E09E
:10186000FB01449150E080E80E94800209CF97304C
:1018700009F4BECF983021F481E08093F10000CFCD
:10188000993009F0FDCE837009F0B2CFE2E5F1E0C6
:1018900081E031E096E32191222371F08093E90009
:1018A0003093EB00DF0111972C912093EC00909383
:1018B000ED008F5F873079F78EE78093EA00109212
:1018C000EA008F8980933503DBCE8B8D9C8D10923F
:1018D000E900109223031092220390932103809336
:1018E0002003898D811192C08E899D89913A49F496
:1018F000813209F07DCF47E050E06BE371E080E09A
:10190000B3CF913209F074CF833269F48F89988D07
:10191000B0E0A0E08093370190933801A0933901A3
:10192000B0933A01ADCE803269F48091E80082FF35
:10193000FCCF67E08BE391E00E94D7028BEF8093AE
:10194000E8009ECE823209F09BCE8F8980934201BF
:10195000EEEFFFE7859194918B3F9C4D51F1E0E0D4
:10196000F8E080913B0190913C01A0913D01B09144
:101970003E01803B9440A105B105F1F48091420104
:1019800080FD1AC0EE3F8AE0F80789F587E797E700
:1019900091838083809160008093240388E19BE0A1
:1019A0000FB6F894A895809360000FBE90936000E6
:1019B00067CEEEEFFAE0D5CF8081918187379747E8
:1019C00009F05ECEA89580916000886180936000E8
:1019D0008091240380936000EE3F2AE0F20789F0B3
:1019E0008091FE0A9091FF0A9183808349CE808185
:1019F00091818737980751F29093FF0A8093FE0AEE
:101A0000C5CF1092FF0A1092FE0A3ACE0E94BD0185
:101A1000DC0112960D911C910115110509F4E8CE17
:101A2000D801ED91FC910190F081E02DBE016B5E3B
:101A30007F4FC8010995811123CEF80100851185DA
:101A4000EBCF181619060CF41BCED2CEF1E0FF1224
:101A5000BECE63E372E004CF1F920F920FB60F92D7
:101A600011242F933F934F935F936F937F938F93A3
:101A70009F93AF93BF93EF93FF9386E893E00E9409
:101A80007203FF91EF91BF91AF919F918F917F91E1
:101A90006F915F914F913F912F910F900FBE0F90DB
:101AA0001F9018951F920F920FB60F9211242F932B
:101AB0008F939F93EF93FF93E0919603F091970399
:101AC0008081E0919C03F0919D0382FD1BC0908179
:101AD00080919F038F5F8F732091A003821741F045
:101AE000E0919F03F0E0EA57FC4F958F80939F03AE
:101AF000FF91EF919F918F912F910F900FBE0F90BB
:101B00001F9018958081F4CF1F920F920FB60F92FD
:101B100011242F933F938F939F93AF93BF93809103
:101B2000F2029091F302A091F402B091F50230918B
:101B3000F10223E0230F2D3758F50196A11DB11DA9
:101B40002093F1028093F2029093F302A093F402A7
:101B5000B093F5028091F6029091F702A091F802FD
:101B6000B091F9020196A11DB11D8093F6029093E8
:101B7000F702A093F802B093F902BF91AF919F9141
:101B80008F913F912F910F900FBE0F901F9018953E
:101B900026E8230F0296A11DB11DD2CF1F920F92EE
:101BA0000FB60F9211242F933F934F935F936F9330
:101BB0007F938F939F93AF93BF93EF93FF93E091A6
:101BC0000801F09109010995FF91EF91BF91AF9143
:101BD0009F918F917F916F915F914F913F912F9145
:101BE0000F900FBE0F901F9018951F920F920FB677
:101BF0000F9211242F933F934F935F936F937F9393
:101C00008F939F93AF93BF93EF93FF93E091060160
:101C1000F09107010995FF91EF91BF91AF919F91CD
:101C20008F917F916F915F914F913F912F910F9085
:101C30000FBE0F901F9018951F920F920FB60F9224
:101C400011242F933F934F935F936F937F938F93C1
:101C50009F93AF93BF93EF93FF93E0910401F091B3
:101C600005010995FF91EF91BF91AF919F918F91E0
:101C70007F916F915F914F913F912F910F900FBE88
:101C80000F901F9018951F920F920FB60F9211246C
:101C90002F933F934F935F936F937F938F939F9374
:101CA000AF93BF93EF93FF93E0910201F091030193
:101CB0000995FF91EF91BF91AF919F918F917F9186
:101CC0006F915F914F913F912F910F900FBE0F90A9
:101CD0001F9018951F920F920FB60F9211242F93F9
:101CE0003F934F935F936F937F938F939F93AF93A4
:101CF000BF93EF93FF93E0910001F09101010995EB
:101D0000FF91EF91BF91AF919F918F917F916F91D3
:101D10005F914F913F912F910F900FBE0F901F90A9
:101D200018951F920F920FB60F9211242F933F9385
:101D30004F935F936F937F938F939F93AF93BF93D3
:101D4000EF93FF938091B900887F803609F44AC0F1
:101D5000F0F5883209F4A7C018F5803109F49BC06A
:101D6000B8F4882309F4F9C0883009F494C0FF91CD
:101D7000EF91BF91AF919F918F917F916F915F9103
:101D80004F913F912F910F900FBE0F901F9018957C
:101D9000883109F488C0803251F78093CE0214C094
:101DA000803409F49DC040F48033B9F38833F9F6E8
:101DB0008093CE0285ECB0C0803509F485C08835AB
:101DC00009F496C0883499F60E94EC05D0CF883982
:101DD00009F48CC038F5883729F050F4883611F0B2
:101DE000803729F683E0809300031092AA0257C03F
:101DF000883809F47BC0803919F0803809F0B7CFF2
:101E00008091AA02803208F071C0E091AA0281E0BC
:101E10008E0F8093AA028091BB00F0E0E657FD4F41
:101E200080833DC0803B39F0E0F4803A09F479C00A
:101E3000883A09F09CCF84E08093000310928902D5
:101E400010928802E091FC02F091FD0209958091C8
:101E5000880281110FC081E080938802109268028D
:101E600009C0803C09F4A6CF883C09F4A3CF883B85
:101E700009F07DCFE091890281E08E0F8093890285
:101E8000F0E0E859FD4F80818093BB00909189027A
:101E90008091880229C08091AB028093BB0085ECC1
:101EA0008093BC0064CF9091CD028091CC029817B2
:101EB00058F5E091CD0281E08E0F8093CD02F0E0E5
:101EC000E455FD4F8081E9CFE091CD0281E08E0F96
:101ED0008093CD028091BB00F0E0E455FD4F8083FC
:101EE0009091CD028091CC029817C8F285E8D8CFA6
:101EF000E091CD0281E08E0F8093CD028091BB00F6
:101F0000F0E0E455FD4F80838091FF0281115CCFAA
:101F100081E08093FE0284EA8093BC00109200036B
:101F200026CF85EC8093BC00109200038091AA021A
:101F3000803230F4E091AA02F0E0E657FD4F1082C3
:101F40006091AA0270E0E091FA02F091FB028AE847
:101F500092E009951092AA020ACF1092CE0234CFD5
:101F6000EF92FF920F931F93CF93DF93F82E192FC9
:101F7000E62E042F81E0860F880F0E94520283E034
:101F80000E945202CF2DD12FEC0EFD2EF11CCE154A
:101F9000DF05B9F007FF13C0FE0184910E945202D1
:101FA000182F80E00E945202812321968111EFCFE9
:101FB000DF91CF911F910F91FF90EF90089588814D
:101FC000EDCF81E0F5CFCF93DF93109239031092DC
:101FD000380388EE93E0A0E0B0E080933A0390935A
:101FE0003B03A0933C03B0933D032CE531E03093D9
:101FF0003703209336032FEF3FEF309343032093B3
:102000004203109289031092880380938A0390936D
:102010008B03A0938C03B0938D032EE631E03093B5
:102020008703209386032DEC30E0309393032093B5
:1020300092032CEC30E0309395032093940328EC2A
:1020400030E0309397032093960329EC30E03093EF
:102050009903209398032AEC30E030939B0320935C
:102060009A032EEC30E030939D0320939C03109252
:102070009F031092A0031092A1031092A20310924A
:102080002604109225048093270490932804A0939B
:102090002904B0932A0480E891E09093240480936B
:1020A00023041092600410925F048AE991E09093F7
:1020B0005E0480935D0487E28093610480E18093F5
:1020C000660482E0809367041092680462E087E10E
:1020D0000E94790462E086E10E947904E3EAF2E07A
:1020E000E491F0E0EE0FFF1FE258FD4FA591B4918F
:1020F000B0935204A0935104E6E7F2E04491409378
:102100005504E2EAF2E0E491F0E0EE0FFF1FE2583E
:10211000FD4FC591D491D0935404C0935304E5E787
:10212000F2E0E491E093560410925804109259049E
:1021300010925A0410925B042BE33FE1C90101970E
:10214000F1F79C91842F892391E009F490E0888134
:10215000E82309F092609093570410925C04109267
:1021600041041092420410924304109244048AE005
:1021700090E090934604809345041092470482E9CE
:1021800091E09093400480933F04109250046BE1DF
:1021900072E089E394E0DF91CF910C946709CF93CB
:1021A000DF93CDB7DEB7AC970FB6F894DEBF0FBEA6
:1021B000CDBF789484B5826084BD84B5816084BDD0
:1021C00085B5826085BD85B5816085BD80916E00D5
:1021D000816080936E001092810080918100826006
:1021E0008093810080918100816080938100809143
:1021F0008000816080938000809191008260809354
:102200009100809191008160809391008091900075
:102210008160809390008091C10084608093C100B0
:102220008091C10082608093C1008091C100816073
:102230008093C1008091C30081608093C30080912E
:10224000C00082608093C0008091C2008160809352
:10225000C20080917A00846080937A0080917A0035
:10226000826080937A0080917A00816080937A0006
:1022700080917A00806880937A00109235031092E2
:102280002503109227038091D70081608093D700A7
:1022900080EA8093D80089B5806189BD89B5826064
:1022A00089BD09B400FEFDCF61E070E080E090E000
:1022B0000E94FC048091D8008F7C80618093D800BC
:1022C0008091E000807F8093E0008091E1008E7E2D
:1022D0008093E1008DE08093E200559A209A5D980A
:1022E0002898E0919603F091970382E08083E09133
:1022F0009203F09193031082E0919403F09195037F
:102300008FEC808310929E03E0919A03F0919B03DF
:1023100086E08083E0919803F09199038081806149
:102320008083E0919803F091990380818860808395
:10233000E0919803F0919903808180688083E09117
:102340009803F091990380818F7D808360E085E11F
:102350000E94790461E08DE00E94790461E084E0EC
:102360000E94790410920403109203031092020356
:10237000109201031092000381E08093FF021092FB
:10238000FE0261E082E00E944B0461E083E00E9473
:102390004B048091B9008E7F8093B9008091B90081
:1023A0008D7F8093B90088E48093B80085E48093A2
:1023B000BC0084EE92E09093FD028093FC0285EED7
:1023C00092E09093FB028093FA0210926204809153
:1023D0006704823018F098E090936204809365045B
:1023E00062E370E080E090E00E94FC046091680489
:1023F0008DE594E00E94A30668EE73E080E090E033
:102400000E94FC0460E38DE594E00E946A070BE4FF
:1024100016E4C8010197F1F760E38DE594E00E94AE
:102420006A07C8010197F1F760E38DE594E00E9427
:102430006A0783E592E00197F1F760E28DE594E0A9
:102440000E946A0760916204606240E08DE594E05A
:102450000E94830784E08093630440E06CE08DE594
:1024600094E00E9483070E94CD0782E08093640479
:1024700040E066E08DE594E00E94830740E062E082
:102480008DE594E00E9483078BE39FE10197F1F7CC
:1024900088E08093680460E08DE594E00E94A306E4
:1024A00060E080E00E949A0782EB91E00E942C0895
:1024B00061E080E00E949A0781EC91E00E942C0884
:1024C00064EF71E080E090E00E94FC0485E180937D
:1024D0005004109247048FE394E00E94C4058823BF
:1024E00029F0809147048360809347040E94B305DC
:1024F0006093410470934204809343049093440496
:1025000089E190E090934604809345040E94780905
:10251000412C74E0572E612C712C46E2842E41E050
:10252000942E58E0252E53E0352E62E0A62EB12CD5
:1025300080915C04823008F08AC0F89481E594E0D0
:102540000E940A078091580490915904A0915A045E
:10255000B0915B04789480931C0390931D03A09327
:102560001E03B0931F03809147048B7F8093470421
:102570008FE394E00E94C405182F8091470486954C
:102580008170181709F465C00E94B3056093410477
:1025900070934204809343049093440480914704D1
:1025A00092E08927809347048091470480FD09C009
:1025B00082FF07C080911B03811103C081E08093DB
:1025C0001B0380911B03882309F489C280910E03A9
:1025D000811193C00E94CD0781E080930E03109279
:1025E0000D0310920C03109208031092090310922D
:1025F0000A0310920B031092070380911C03909121
:102600001D03A0911E03B0911F034091330150910F
:102610003401609135017091360184179507A60742
:10262000B70741F08093330190933401A0933501B3
:10263000B093360180E090E0892B09F479CF0E94B5
:102640005E03882309F469CF0E94000066CFF894E6
:1026500079CF0E94B305C0904104D0904204E0902D
:102660004304F09044049B01AC012C193D094E0930
:102670005F098091450490914604B0E0A0E02817DE
:1026800039074A075B0708F48FCF809147048170B0
:10269000181709F489CF0E94B30560934104709321
:1026A000420480934304909344048091470491E052
:1026B00089278460809347040E94B30500914804F1
:1026C0001091490420914A0430914B04601B710B16
:1026D000820B930B60934C0470934D0480934E04D3
:1026E00090934F040E94B30560934804709349048B
:1026F00080934A0490934B0457CF80910C039091A0
:102700000D03009709F0C6C08FE093E09093060395
:102710008093050360E080E00E949A0782ED91E0DB
:102720000E942C0880910F0390911003A091110337
:10273000B09112030097A105B10509F4A3C0019758
:10274000A105B10509F4A3C040911C0350911D03DC
:1027500060911E0370911F038091330190913401A9
:10276000A0913501B0913601481759076A077B07D8
:102770000CF09CC1E0910503F091060380819181EA
:10278000A281B3810197A109B10980839183A283BA
:10279000B38380910F0390911003A0911103B09126
:1027A00012030097A105B10521F081E090E0A0E0BF
:1027B000B0E080930F0390931003A0931103B093A4
:1027C000120380912A0190912B01A0912C01B091CC
:1027D0002D0185369105A105B10520F084E690E034
:1027E000A0E0B0E08A309105A105B10520F48AE0AF
:1027F00090E0A0E0B0E080932A0190932B01A09399
:102800002C01B0932D014091080350910903609170
:102810000A0370910B03F42FE52F362F272F483032
:1028200051056105710524F0F7E0E0E030E020E0BB
:102830008F2F9E2FA32FB22FB7FF03C080E090E011
:10284000DC018093080390930903A0930A03B093DB
:102850000B038091470480FDD0CE82FFCECE8091C5
:102860000C0390910D038230910531F447305105EE
:10287000610571050CF42CC1019690930D038093B2
:102880000C03BBCE89ED91E00E942C085DCF84EE55
:1028900091E0FACF8130910561F580910F0390911D
:1028A0001003A0911103B09112030197A105B10586
:1028B00021F0B0920D03A0920C034AE251E0509334
:1028C00006034093050360E080E00E949A0780EFD2
:1028D00091E00E942C0860912A0170912B01809157
:1028E0002C0190912D014AE00E94DE0787EF91E0D4
:1028F000CBCF8230910509F0C9C060E080E00E9432
:102900009A078EEF91E00E942C086BE172E089E358
:1029100094E00E94FA080AE011E0F80161917191D7
:10292000819191918F011CA21BA21EA21DA218A62B
:102930001FA22AE0AE014F5F5F4F0E94B716BE0193
:102940006F5F7F4FCE0183960E94FA08BE016D5DD6
:102950007F4F89E394E00E94D208CE0183960E94C3
:102960004B0880169106C9F60091390410913A047B
:1029700060E070E0CB010115110519F0C8010E945B
:1029800090166093260170932701809328019093FD
:1029900029011A8219821C821B821E821D82011546
:1029A000110549F040913D0450913E04B801CE011B
:1029B00001960E94D90862E072E0CE0101960E9461
:1029C000A908BC018DE594E00E94E602CE010196C3
:1029D0000E944B0860E08DE00E949A0786E092E03A
:1029E0000E942C0861E080E00E949A078AE092E051
:1029F0000E942C088091080390910903A0910A037A
:102A0000B0910B0361E087309105A105B10599F5FF
:102A10008FE00E949A0780910703882371F18091CB
:102A2000080390910903A0910A03B0910B03880F4A
:102A3000991F880F991FFC01E65FFE4FF093060374
:102A4000E093050340815181628173814A305105D1
:102A50006105710524F049E050E060E070E077FF27
:102A600003C040E050E0BA01408351836283738326
:102A70008CE192E009CF8D5FCCCF8EE192E00E9495
:102A80002C0830920603209205035ECE039709F0CE
:102A90005BCE10921B0310920E0366E970E080E09B
:102AA00090E00E94FC040E9478094ECE841795079E
:102AB000A607B7070CF06DCEE0910503F091060371
:102AC00080819181A281B3810196A11DB11D5DCE4E
:102AD0008091070391E08927809307038ECD82E1DF
:102AE0000E94B50428E130E0DC010E940E1AA30127
:102AF00092010E948119CA01B9016C5071098109C2
:102B000091090E94461960931703709318038093EC
:102B1000190390931A0383E10E94B50426E030E084
:102B2000DC010E940E1AA30192010E948119CA01C0
:102B3000B901660F771F881F991F0E94461960937D
:102B40002F017093300180933101909332010E94E4
:102B5000B3050091130310911403209115033091D4
:102B60001603601B710B820B930B653C794081054A
:102B7000910590F080912E0191E0892780932E019C
:102B80000E94B3056093130370931403809315039D
:102B9000909316030E94CD0761E080E00E949A079F
:102BA00080E292E00E942C0840912F015091300168
:102BB0006091310170913201CE0101960E940409A9
:102BC000BE016F5F7F4F8DE594E00E94E602CE016B
:102BD00001960E944B0883E292E00E942C0861E07B
:102BE00089E00E949A0785E292E00E942C084091B9
:102BF0001703509118036091190370911A03CE01C5
:102C000001960E940409BE016F5F7F4F8DE594E03D
:102C10000E94E602CE0101960E944B0883E292E0F8
:102C20000E942C0880912E0160E0882309F441C0A5
:102C300080E00E949A0780910F0390911003A09169
:102C40001103B09112030097A105B10549F588E27F
:102C500092E00E942C0880912A0190912B01A09172
:102C60002C01B0912D0184369105A105B105F9F42F
:102C700087E060E00E949A0784E392E00E942C08BB
:102C800060912A0170912B0180912C0190912D016E
:102C90004AE00E94DE078AE392E00E942C08ADCC55
:102CA0000197A105B105B9F68DE292E0D2CF88E097
:102CB000E0CF80E00E949A078CE392E00E942C080B
:102CC000609126017091270180912801909129013E
:102CD0004AE00E94DE0783E492E0DFCF89E394E0DC
:102CE0000C944B08EF920F931F93CF93DF93E8015F
:102CF00034E047FD34E1042E000C550B57FF03C0B0
:102D0000519541955109E32E022F242FAE010E94C7
:102D1000FD16CE01DF91CF911F910F91EF90089595
:102D20001F93FC0199278827BC01E8941191103268
:102D3000E9F3193010F01E30C8F31B3251F01D3288
:102D400049F4689406C00E94C616610F711D811D6A
:102D5000911D119110531A30B0F33EF49095809567
:102D6000709561957F4F8F4F9F4F1F910895BB279F
:102D70002A3051F4992342F4BDE2909580957095E4
:102D800061957F4F8F4F9F4F0C94DC16592F482F22
:102D9000372F262F660F771F881F991F660F771F03
:102DA000881F991F620F731F841F951F660F771F5F
:102DB000881F991F0895BB27FA01A62F6217710576
:102DC00081059105330B30FB66F0AA27660F771F4C
:102DD000881F991FAA1FA21710F0A21B63953850D5
:102DE000A9F7A05DAA3308F0A95DA19336F7B11148
:102DF000B1931082CA010C943419A9E0B0E0E3E069
:102E0000F7E10C94A6196A01F22EB02E102FFBE305
:102E1000AF2EA01608F41BE31F5F012F27E0AE01C1
:102E20004F5F5F4F0E945C18BC018981982F997099
:102E3000913009F43FC09BE2E1FC04C09E2D9170EB
:102E4000E0FC3AC05E2D5071E82FE87083FF46C069
:102E500084E0911101C083E0EF2DE81B8F1508F08D
:102E6000E0E0D6018E2F20E2552351F1992329F07D
:102E7000D6019C93C60101966C0196012D5F3F4FD0
:102E8000E2FE24C08EE4D6018C9391E411969C93CB
:102E9000119712968C93D9018E2F90E281111BC04D
:102EA000E20FF32FF11D10828EEF9FEF2996ECE0D9
:102EB0000C94C2199DE2C6CF90E2C4CF2D938150ED
:102EC0008111FCCFCE0ED11CE0E0D0CF8EE6D60132
:102ED0008C9391E6DBCF9D938150E0CF482F4470D7
:102EE00082FF3DC084E0911101C083E08F1510F492
:102EF000EF2DE81BD6018E2F20E2552309F19923EF
:102F000029F0D6019C93C60101966C0196012D5FB4
:102F10003F4FE2FE1BC089E4D6018C938EE41196EC
:102F20008C93119786E412968C93D9018E2F90E2A0
:102F3000882309F4B5CF9D938150FACF2D9381500A
:102F40008111FCCFCE0ED11CE0E0D9CF89E6D601AD
:102F50008C938EE611968C93119786E6E4CF9B01B5
:102F600077FF02C030E020E0A1E0B0E0911102C0A4
:102F7000B0E0A0E0F9013196AE0FBF1F8B2C912C71
:102F8000BB2009F461C05401EFEFAE1ABE0AAA0DCE
:102F9000BB1DFA161B0619F014F04F2D4A1B5111D8
:102FA00088C0E3FC59C07601A42FB0E2A1114FC044
:102FB000C40ED11C992309F45BC040E0D6011196E0
:102FC000F60190836D01552309F448C0012F060FC7
:102FD0009A81582F507184FF03C0913309F4015036
:102FE00010160CF047C0093008F008E0EEE2FE2EA3
:102FF0005B01A01AB10885019194819491082F3F3B
:10300000320729F4D601FC92F60131966F0162175E
:10301000730794F1021713077CF5DB01A21BB30BB6
:10302000AA24A394B12CAC0EBD1EAA0DBB1D1196F3
:103030008C9121503109D601119628153905F4F0EB
:10304000F60180836D01DBCFB12CA12CA0CFF7015D
:10305000B1937F01A150AACF9111B0CFD601942F87
:1030600050E302C05D9391509111FCCFC40ED11C6E
:1030700040E0ACCF01E0BACF80E3DBCF621773074B
:1030800031F4963388F4953311F4552369F0F60141
:103090008083FD01842F90E2811108C0A40FB11D2F
:1030A0001C9290E080E002CF81E3F1CF91938150B8
:1030B000F3CF911183CF8ACF283008F027E0332750
:1030C000DA01990F311D87FD916000966105710548
:1030D00039F432602E5F3D9330E32A95E1F708958D
:1030E0009F3F30F080387105610509F03C5F3C5F1F
:1030F0003D93913008F08068911DDF93CF931F932B
:103100000F93FF92EF92192F987F9695E92F96953E
:103110009695E90FFF27EA5FFE4F99273327EE24A4
:10312000FF24A701E70105900894079428F4360FBF
:10313000E71EF81E491F511D660F771F881F991F34
:103140000694A1F70590079428F4E70EF81E491F8E
:10315000561FC11D770F881F991F661F0694A1F780
:103160000590079428F4F80E491F561FC71FD11D5C
:10317000880F991F661F771F0694A1F70590079483
:1031800020F4490F561FC71FD81F990F661F771FBE
:10319000881F0694A9F784911095177041F0D69571
:1031A000C79557954795F794E7941A95C1F7ECEAB8
:1031B000F0E0689415901591359165919591059081
:1031C0007FE27395E118F10A430B560BC90BD00946
:1031D000C0F7E10CF11E431F561FC91FD01D7EF41E
:1031E000703311F48A95E6CFE894015030F0080F5F
:1031F0000AF40027021708F4202F2395022F7A33B0
:1032000028F079E37D932A95E9F710C07D932A95FC
:1032100089F6069497956795379517951794E11851
:10322000F10A430B560BC90BD00998F023957E91F8
:1032300073957A3308F070E37C932013B8F77E918E
:1032400070617D9330F0839571E37D9370E32A95EF
:10325000E1F71124EF90FF900F911F91CF91DF9133
:10326000992787FD90950895DC01FC01672F7191E6
:103270007723E1F7329704C07C916D93708362915C
:10328000AE17BF07C8F30895E89409C097FB3EF452
:1032900090958095709561957F4F8F4F9F4F9923A3
:1032A000A9F0F92F96E9BB279395F6958795779521
:1032B0006795B795F111F8CFFAF4BB0F11F460FFE1
:1032C0001BC06F5F7F4F8F4F9F4F16C0882311F039
:1032D00096E911C0772321F09EE8872F762F05C04D
:1032E000662371F096E8862F70E060E02AF09A95E8
:1032F000660F771F881FDAF7880F9695879597F9DD
:103300000895052E97FB1EF400940E94981957FD0E
:1033100007D00E94D71907FC03D04EF40C949819DB
:1033200050954095309521953F4F4F4F5F4F0895F1
:1033300090958095709561957F4F8F4F9F4F089521
:103340002F923F924F925F926F927F928F929F92B5
:10335000AF92BF92CF92DF92EF92FF920F931F93A3
:10336000CF93DF93CDB7DEB7CA1BDB0B0FB6F89454
:10337000DEBF0FBECDBF09942A88398848885F8494
:103380006E847D848C849B84AA84B984C884DF8005
:10339000EE80FD800C811B81AA81B981CE0FD11DE9
:1033A0000FB6F894DEBF0FBECDBFED010895A1E2C8
:1033B0001A2EAA1BBB1BFD010DC0AA1FBB1FEE1FAF
:1033C000FF1FA217B307E407F50720F0A21BB30BFA
:1033D000E40BF50B661F771F881F991F1A9469F776
:1033E00060957095809590959B01AC01BD01CF01D2
:1033F0000895A29FB001B39FC001A39F700D811DCE
:103400001124911DB29F700D811D1124911D0895ED
:10341000EE0FFF1F0590F491E02D09940E94F91919
:10342000B7FF0895821B930B08950F931F93CF93BB
:10343000DF938230910510F482E090E0E0916B041C
:10344000F0916C0430E020E0B0E0A0E0309799F417
:103450002115310509F44AC0281B390B24303105E8
:10346000D8F58A819B816115710589F1FB019383F0
:103470008283FE0111C0408151810281138148176E
:103480005907E0F04817590799F4109761F0129620
:103490000C93129713961C933296CF01DF91CF9124
:1034A0001F910F91089500936B0410936C04F4CF57
:1034B0002115310551F04217530738F0A901DB01FE
:1034C0009A01BD01DF01F801C1CFEF01F9CF90935F
:1034D0006C0480936B04CDCFFE01E20FF31F819348
:1034E00091932250310939832883D7CF20916904E1
:1034F00030916A04232B41F420914501309146011B
:1035000030936A042093690420914301309144016F
:103510002115310541F42DB73EB740914701509137
:103520004801241B350BE0916904F0916A04E2170D
:10353000F307A0F42E1B3F0B2817390778F0AC01D6
:103540004E5F5F4F2417350748F04E0F5F1F5093B3
:103550006A0440936904819391939FCFF0E0E0E087
:103560009CCFCF93DF930097E9F0FC013297138251
:103570001282A0916B04B0916C04ED0130E020E068
:103580001097A1F420813181820F931F209169044B
:1035900030916A042817390709F061C0F0936A0472
:1035A000E0936904DF91CF910895EA01CE17DF0718
:1035B000E8F54A815B819E0141155105B1F7E901AA
:1035C000FB83EA8349915991C40FD51FEC17FD077E
:1035D00061F4808191810296840F951FE90199839E
:1035E0008883828193819B838A83F0E0E0E0129656
:1035F0008D919C9113970097B9F52D913C9111975E
:10360000CD010296820F931F2091690430916A04C4
:103610002817390739F6309751F510926C0410923B
:103620006B04B0936A04A0936904BCCFD383C283B4
:1036300040815181840F951FC817D90761F44E5FEF
:103640005F4F88819981480F591F518340838A8138
:103650009B81938382832115310509F0B0CFF093CC
:103660006C04E0936B049ECFFD01DC01C0CF13829C
:103670001282D7CFB0E0A0E0E0E4FBE10C94A21905
:103680008C01009751F4CB010E94151A8C01C801DE
:10369000CDB7DEB7E0E10C94BE19FC01E60FF71FD1
:1036A0009C0122503109E217F30708F49DC0D901AB
:1036B000CD91DC911197C617D70798F0C530D10589
:1036C00030F3CE0104978617970708F3C61BD70B74
:1036D0002297C193D1936D937C93CF010E94B11A2D
:1036E000D6CF5B01AC1ABD0A4C018C0E9D1EA09179
:1036F0006B04B0916C04512C412CF12CE12C1097EF
:1037000031F58091690490916A048815990509F052
:103710005CC04616570608F058C08091430190914E
:103720004401009741F48DB79EB7409147015091F5
:103730004801841B950BE817F90708F055C0F09372
:103740006A04E0936904F90171836083A0CF8D91CD
:103750009C91119712966C90129713967C901397E8
:10376000A815B90559F56C0142E0C40ED11CCA1464
:10377000DB0420F1AC014A195B09DA0112961597B6
:1037800080F06282738251834083D9016D937C9370
:10379000E114F10471F0D7011396FC93EE931297A4
:1037A00076CF22968C0F9D1FF90191838083F301C0
:1037B000EFCFF0936C04E0936B0469CF4816590681
:1037C00008F42C017D01D3019ACFCB010E94151A78
:1037D0007C01009749F0AE01B8010E94FC1BC801B2
:1037E0000E94B11A870153CF10E000E050CF81E072
:1037F00090E0F8940C940C1CFB01DC0102C00190D9
:103800000D9241505040D8F70895FB01DC01019022
:103810000D920020E1F7089511E0C7E5D1E004C062
:10382000FE010E94081A2196C835D107C9F7F894FD
:02383000FFCFC8
:10383200BF05BF05BF05BF05BF05010000000000B1
:103842000000000000000000000000000000000076
:10385200000000000000E80300003200000001CD7B
:10386200CCCC4019FCFFFFFFFFFFFF00E10000008E
:1038720000000000006D04800000004000140054AD
:103882000000C1808100000000000000D1012E056F
:10389200F201E7013802F60114020000000093036E
:1038A200F4022103DF03520330034403000000004B
:1038B2007406470607071D0640062D061E06000071
:1038C2000000C405C00500000000D807F402070785
:1038D200EB05770074005400660046006400440063
:1038E20057005465656E737920332E352044445356
:1038F2000076312E3020627920456D614D616B6515
:103902007200547970653A200053696E6520202058
:103912002020200053717561726520202020200034
:10392200447574793A200025202020202000463A50
:103932002000487A20004F6B3F00202020202020CA
:103942002020202020202020202020005E005F0058
:10395200413A0056004F3A0053696E650053717543
:1039620061726500447574793A002500467265718A
:083972003A200020487A000011
:2070000055C000006EC000006CC000006AC0000068C0000066C0000064C0000062C0000043
:2070200060C000005EC00000F2C400005AC0000058C0000056C0000054C0000052C00000EE
:2070400050C0000078C000004CC000004AC0000048C0000046C0000044C0000042C00000BE
:2070600040C000003EC000003CC000003AC0000038C0000036C0000034C0000032C0000048
:2070800030C000002EC000002CC000002AC0000028C0000026C0000024C0000022C00000A8
:2070A00020C000001EC000001CC0000011241FBECFEFDAE0DEBFCDBF11E0A0E0B1E0E2E3BC
:2070C000FFE702C005900D92A83AB107D9F711E0A8EAB1E001C01D92AE3BB107E1F78FD30B
:2070E00026C78ECFF89410926F0010928100109285001092840081E085BF15BE47985D98ED
:2071000028980C94000008952091B2013091B3012F5F3F4F3093B3012093B201932F37FFA8
:2071200003C08EEF831B982F990F921710F447980895479A08951F920F920FB60F9211246E
:207140002F938F939F93EF93FF9310928500109284008091A8019091A901009741F00197D3
:207160009093A9018093A801892B09F45D988091AA019091AB01009741F001979093AB0128
:207180008093AA01892B09F42898E0E0F0E0859194918F5F9F4F49F08091AC019091AD0153
:2071A00001969093AD018093AC01FF91EF919F918F912F910F900FBE0F901F90189584E0BC
:2071C0008093E9000DC08091E8008B778093E80003C08EB3882351F08091E80082FFF9CFBE
:2071E0008091E80085FFEFCF8091F1000895982F83E08093E9008091E80085FD0DC0809136
:20720000E8008E778093E80003C08EB3882369F08091E80080FFF9CF9093F1005D9A84E6C9
:2072200090E09093A9018093A80108954F925F926F927F928F929F92AF92BF92CF92DF921E
:20724000EF92FF920F931F93CF93DF9384E08093E9008091E80082FF57C2289A84E690E065
:207260009093AB018093AA01AADF182F853481F48CE49DE19093AD018093AC0107B600FC4B
:20728000FDCFF999FECF81E180935700E89503C0843519F494DF8DE00DC28C34E1F38035F9
:2072A000D1F3843721F484E4A2DF80E003C2813611F489E5FFC18134B1F481DF182F7FDFE3
:2072C00090E0880F991FAA2797FDA095BA2F312F330F20E0442737FD4095542F822B932B68
:2072E000A42BB52BB8C1803711F483E5E3C1833549F4C0E0D1E089917ADF21E0C730D20714
:20730000D1F7D9C1863521F481E371DF80E3D2C1833731F487E86BDF85E969DF8EE1CAC149
:207320008536B9F4E0E0F0E093E085E090935700E89507B600FCFDCF80935700E89507B65D
:2073400000FCFDCFE058FF4FA0E7E030FA0771F7A2CF823739F4E1E0F0E089E08093570024
:207360008491A8C1863439F4E0E0F0E089E08093570084919FC18E3439F4E3E0F0E089E0E5
:2073800080935700849196C1813539F4E2E0F0E089E08093570084918DC1823631F489E521
:2073A00026DF80E024DF80E885C1823419F0873609F0E5C01092AD011092AC0100DF082FE8
:2073C000FEDEF82EFCDE682E8554823008F071C1902F80E0CF2DD0E0C82BD92B10926F00B3
:2073E000173609F04BC081E180935700E895DD24CC24C3943FC0E090AE01F090AF010091CC
:20740000B0011091B101B6E46B16D9F4ED2DF0E0EE29FF29E4918E2FEADEDD2081F082E08D
:2074200090E0A0E0B0E0E80EF91E0A1F1B1FE092AE01F092AF010093B0011093B101DC2470
:2074400018C0D801C701B695A7959795879559D5CEDE82E090E0A0E0B0E0E80EF91E0A1FF2
:207460001B1FE092AE01F092AF010093B0011093B1012197209709F0BECF7DC08090AE01F5
:207480009090AF01A090B001B090B10196E4691609F05DC083E0F40180935700E89507B63E
:2074A00000FCFDCF54C0F6E46F1661F5772031F1E090AE01F090AF010091B0011091B1019E
:2074C0007EDED82ECC24852D90E08C299D29F7010C0140925700E895112482E090E0A0E08B
:2074E000B0E0E80EF91E0A1F1B1FE092AE01F092AF010093B0011093B10102C060DE582E1A
:20750000742423C0E090AE01F090AF010091B0011091B10116950795F794E79450DE682FFA
:20752000C701F7D48091AE019091AF01A091B001B091B1010296A11DB11D8093AE01909349
:20754000AF01A093B001B093B101219704C05524772444244394209709F0A5CF96E46916B6
:2075600041F485E0F40180935700E89507B600FCFDCF8DE03CDE82E080936F009CC0833492
:2075800071F40091AE011091AF0119DE90E021E0F8010C0120935700E89511247CCE8336C8
:2075A00019F5E090AE01F090AF010091B0011091B10105DEF701E16090E021E00C0120938C
:2075C0005700E895112482E090E0A0E0B0E0E80EF91E0A1F1B1FE092AE01F092AF0100936A
:2075E000B0011093B10157CE8D3661F4E091AE01F091AF0185E080935700E89507B600FCF2
:20760000FDCF49CE823551F4E091AE01F091AF0105911491812FEBDD802F4CC0843421F5FE
:20762000E090AE01F090AF010091B0011091B10116950795F794E794C2DD682FC70169D4DE
:207640008091AE019091AF01A091B001B091B1010296A11DB11D8093AE019093AF01A093D8
:20766000B001B093B10117CE843609F5E090AE01F090AF010091B0011091B101D801C70142
:20768000B695A795979587953CD4B1DD82E090E0A0E0B0E0E80EF91E0A1F1B1FE092AE010A
:2076A000F092AF010093B0011093B10104C08B3111F08FE39CDD83E08093E9009091E8002B
:2076C0008091E8008E778093E80095FF04C010C08EB38823C9F08091E80080FFF9CF809193
:2076E000E8008E778093E80003C08EB3882361F08091E80080FFF9CF84E08093E9008091F1
:20770000E8008B778093E800DF91CF911F910F91FF90EF90DF90CF90BF90AF909F908F90AC
:207720007F906F905F904F9008959091B601892F8F77813249F58091B7018032A1F081328A
:2077400019F5913A09F58091E800877F8093E8008DE091E067E070E00BD28091E8008B770B
:207760008093E8000895913279F48091E800877F8093E8008DE091E067E070E05DD2809192
:20778000E8008E778093E800089582E061EC42E0B5D083E061E842E1B1D084E060E842E1EF
:2077A000ADC084B7877F84BF88E10FB6F89480936000109260000FBE20E880E090E00FB63F
:2077C000F89420936100809361000FBE81E085BF92E095BF3F9A209A559AE1E6F0E02083A1
:2077E000108247985D982898109289008AEF8093880090936F0083E080938100F0C040911A
:20780000000850910108109201081092000894B714BE88E10FB6F8948093600010926000D5
:207820000FBE292F30E0F901E270F07091FD18C090FF05C0859194918F5F9F4F81F423FFFF
:207840000FC08091090190910A014817590741F0E0E0F0E0859194918F5F9F4F09F042DC64
:20786000A0DF78941092AD011092AC010CC0DEDC36D38091AC019091AD0181549F4110F00D
:207880001092140141DC80911401882381F78091E00081608093E00025DC80E090E0089598
:2078A000FA01923049F0933061F09130F9F485E191E022E130E01EC087E291E02EE330E04D
:2078C00019C0882329F485E691E024E030E012C0813029F489E691E022E230E00BC0823006
:2078E00029F48DE891E028E130E004C080E090E020E030E091838083C90108958093E9004E
:207900008091EB0081608093EB001092ED006093EC004093ED008091EE00881F8827881F62
:2079200008958091B60188238CF403C08EB38823B1F08091E80082FFF9CF8091E8008B772A
:207940008093E80008958EB3882349F08091E80080FFF9CF8091E8008E778093E800089594
:20796000EF92FF920F931F9345D04CD008ED10E0F80180818F77808380818068808380819B
:207980008F7D808319BC1EBA1092B40180EEE82EF12CF70180818B7F8083F8018081816052
:2079A000808380E060E042E0A9DFE1EEF0E080818E7F8083E2EEF0E0808181608083808144
:2079C00088608083F70180818E7F8083F8018081806180831F910F91FF90EF900895E7ED06
:2079E000F0E08081816080838AE482BF81E08093B501B6CFE8EDF0E080818E7F808310921C
:207A0000E20008951092DA001092E10008951F920F920FB60F9211242F933F934F935F93F6
:207A20006F937F938F939F93AF93BF93EF93FF938091DA0080FF1BC08091D80080FF17C0B2
:207A40008091DA008E7F8093DA008091D90080FF0BC080E189BD82E189BD09B400FEFDCF36
:207A600081E08EBB3BD203C019BC1EBA37D28091E10080FF17C08091E20080FF13C0809138
:207A8000E2008E7F8093E2008091E20080618093E2008091D80080628093D80019BC85E049
:207AA0008EBB1CD28091E10084FF2CC08091E20084FF28C080E189BD82E189BD09B400FEC5
:207AC000FDCF8091D8008F7D8093D8008091E1008F7E8093E1008091E2008F7E8093E20012
:207AE0008091E20081608093E2008091B401882331F48091E30087FD02C081E001C084E067
:207B00008EBBECD18091E10083FF21C08091E20083FF1DC08091E100877F8093E10082E06A
:207B20008EBB1092B4018091E1008E7F8093E1008091E2008E7F8093E2008091E2008061E9
:207B40008093E20080E060E042E0D8DEC7D1FF91EF91BF91AF919F918F917F916F915F9130
:207B60004F913F912F910F900FBE0F901F9018959C014091BC015091BD014617570718F49D
:207B8000F90190E044C06115710511F0AB01F8CF8091E8008E778093E80040E050E0F0CF0F
:207BA0008EB3882309F444C0853009F443C08091E80083FF02C081E008958091E80082FD70
:207BC00031C08091E80080FF22C08091F3009091F200782F60E0292F30E0262B372B07C07A
:207BE00081918093F100415050402F5F3F4F4115510519F02830310598F390E02830310566
:207C000009F491E08091E8008E778093E8004115510531F6992321F605C08EB3882341F075
:207C2000853041F08091E80082FFF7CF80E0089582E0089583E008959C016115710529F47C
:207C40008091E8008B778093E800F90126C08EB3882391F1853091F18091E80083FF02C06C
:207C600081E008958091E80082FFF1CF06C08091F10081936150704059F02091F300809191
:207C8000F200322F20E090E0822B932B892B79F78091E8008B778093E80061157105B9F601
:207CA00005C08EB3882341F0853041F08091E80080FFF7CF80E0089582E0089583E00895C2
:207CC0000F931F93DF93CF9300D0CDB7DEB7E6EBF1E08091F100819381E0EE3BF807C9F792
:207CE00024DD8091E80083FFE4C08091B6019091B701953009F46DC0963040F4913081F1A7
:207D0000913070F0933009F0D4C02AC0983009F4A3C0993009F4B2C0963009F0CAC07CC023
:207D2000803809F4C6C0823809F0C3C08091BA0187708093E9008091EB001092E9002091DB
:207D4000E800277F2093E80090E025E0969587952A95E1F781708093F1001092F10087C0D8
:207D6000882319F0823009F0A4C08F71823009F0A0C08091B801882331F52091BA01277097
:207D800009F497C02093E9008091EB0080FF1BC0933021F48091EB00806213C08091EB0018
:207DA00080618093EB0081E090E002C0880F991F2A95E2F78093EA001092EA008091EB00E5
:207DC00088608093EB001092E9008091E800877F51C0882309F06DC01091B8011F770FB79B
:207DE000F8948091E800877F8093E8009ADD8091E80080FFFCCF8091E3008078812B809398
:207E0000E30080688093E300112311F482E001C083E08EBB0FBF4DC08058823008F049C033
:207E20008091B8019091B9016091BA01AE014F5F5F4F36DDBC01009709F43BC08091E8008E
:207E4000877F8093E80089819A8192DE8091E8008B778093E8002DC0803859F58091E800AA
:207E6000877F8093E8008091B4018093F1008091E8008E778093E80054DD1BC08823C9F4CA
:207E80009091B8019230A8F48091E800877F8093E8009093B40145DD8091B401882331F420
:207EA0008091E30087FD02C081E001C084E08EBB6CDC8091E80083FF0AC08091EB0080624E
:207EC0008093EB008091E800877F8093E8000F900F90CF91DF911F910F91089508951F9360
:207EE0008EB3882361F01091E9001092E9008091E80083FF01C0E4DE17701093E9001F916F
:207F00000895F999FECF92BD81BDF89A992780B50895262FF999FECF1FBA92BD81BD20BDBD
:207F20000FB6F894FA9AF99A0FBE01960895F894FFCF4341544552494E4100777700080031
:207F40000000000000080112011001020000084123370001000201000109023E00020100FE
:207F600080320904000001020201000524001001042402040524060001070582030800FF0C
:207F800009040100020A000000070504021000010705830210000104030904220341007216
:207FA000006400750069006E006F0020004D006900630072006F0020002000200000001810
:1A7FC00003410072006400750069006E006F0020004C004C004300000000D7
:00000001FF
